:100000000C94D7180C9408190C9408190C9408191E
:100010000C9408190C9408190C9408190C940819DC
:100020000C9408190C9408190C9408190C940819CC
:100030000C9408190C948EB40C9408190C9408199B
:100040000C9408190C944A840C9408190C940819FF
:100050000C9408190C9408190C94CC9C0C9473B64D
:100060000C9408190C94F8480C9408190C9408196D
:100070000C9408190C9408190C9408190C9408197C
:100080000C9408190C9408190C9408190C9408196C
:100090000C9408190C9408190C9408190C9408195C
:1000A0000C9408190C9408190C9408190C9408194C
:1000B0000C9408190C9408190C9408190C9408193C
:1000C0000C9408190C9408190C9408190C9408192C
:1000D0000C9408190C9408190C94FF560C94C056F3
:1000E0000C9408198D39AA39DB39F8390D3A363AAA
:1000F000A53A0B3BBC3BC93ED73ED03E0B3F0F3F22
:10010000203F6A43353F853FB73FDE3F00405440C4
:100110006540764087409840A9406A43F0416A4371
:10012000FB41D742EB421643D7B3DAB3C9B3CDB3E1
:10013000D3B311B4DEB3E2B3E8B3ECB3F0B3F6B3C8
:10014000FAB3FEB311B404B408B40CB48FB594B5CB
:1001500099B5A3B5ADB526B6B7B5BFB5C7B5D1B5D9
:10016000DBB5E5B5F4B5FEB526B608B612B61CB6D5
:10017000A5C8B3C8C7C8CCC8E5C8F5C810C924C944
:100180004CCA3FC94CCA53C94CCA72C977C9DEC9E7
:10019000F2C904CA09CA20CA38CAF1DD00DE11DE7C
:1001A00022DE33DE44DE55DE66DEF6DE77DEF6DEA8
:1001B000F6DE84DE084AD73B3BCE016E84BCBFFD31
:1001C000C12F3D6C74319ABD56833DDA3D00C77F27
:1001D00011BED9E4BB4C3E916BAAAABE00000080C0
:1001E0003F05A84CCDB2D44EB93836A9020C50B94F
:1001F000918688083CA6AAAA2ABE000000803F007B
:100200004E414E494E495459494E46CDCCCC3D0AFB
:10021000D7233C17B7D13877CC2B329595E6241FDE
:10022000B14F0A000020410000C84200401C462097
:10023000BCBE4CCA1B0E5AAEC59D7447322F473305
:100240002062616420706172616D65746572730A09
:1002500000205A3A200020593A2000426564205874
:100260003A2000456E642066696C65206C69737481
:100270000A00426567696E2066696C65206C697367
:10028000740A0046696C652064656C657465643A3F
:100290000044656C6574696F6E206661696C6564A5
:1002A0002C2046696C653A20006F70656E2066618F
:1002B000696C65642C2046696C653A200025697379
:1002C0000025696D20256973002569682025696D01
:1002D0002025697300256964202569682025696DDA
:1002E00020256973002569792025696420256968BE
:1002F0002025696D20256973005072696E74207421
:10030000696D653A200050726F746563746564208E
:1003100050696E0A006F6E2E0A006F66662E0A0024
:1003200047323620446562756720003D003F2061FA
:10033000646472657373203A200020627974657377
:10034000206F66206D656D6F727920696E697469C2
:10035000616C697A65642E0A0A00556E61626C658B
:1003600020746F20696E697469616C697A652E0A00
:100370000A00496E697469616C697A696E67206602
:10038000726565206D656D6F727920626C6F636B4D
:100390002E0A0A0A00747275650A00207265747567
:1003A000726E3D000A4D656D6F727920436F7272F7
:1003B000757074696F6E206465746563746564201C
:1003C000696E2066726565206D656D6F727920615A
:1003D0007265612E0A002020626C6F636B5F666F2E
:1003E000756E643D00202020002920666F756E64C4
:1003F0003D00202800207370203C2048656170205B
:10040000002073703D000A5F5F6273735F656E6406
:100410003A20003D000A265F5F62726B76616C3A9B
:1004200020000A666D632829206E3D0063686563BD
:100430006B5F666F725F667265655F6D656D6F722B
:10044000795F636F7272757074696F6E2829203DD1
:10045000200020627974657320617420000A4C6169
:100460007267657374206672656520626C6F636B7A
:1004700020697320000A4D656D6F727920436F7299
:1004800072757074696F6E206465746563746564F9
:1004900020696E2066726565206D656D6F727920CA
:1004A000617265612E0A002062797465732066723C
:1004B00065652061742000466F756E6420000A43F4
:1004C0006F7272757074696E6720616464726573AF
:1004D000733A2000436F7272757074696E6720669C
:1004E000726565206D656D6F727920626C6F636BEC
:1004F0002E0A0A000A537461636B20506F696E7490
:100500006572203A20000A7374617274206F66204D
:1005100066726565207370616365203A20000A5F2A
:100520005F6273735F656E64203A20000A5F5F62EA
:10053000726B76616C203A20004B494C4C45442E3E
:10054000200053657474696E672054726176656C1F
:1005500020416363656C65726174696F6E3A200057
:1005600053657474696E6720526574726163742098
:10057000416363656C65726174696F6E3A20005304
:10058000657474696E67205072696E74204163638C
:10059000656C65726174696F6E3A2000536574749E
:1005A000696E67205072696E7420616E64205472A7
:1005B0006176656C20416363656C65726174696F17
:1005C0006E3A2000205A004475616C20456E6473B9
:1005D000746F702041646A7573746D656E74202841
:1005E0006D6D293A2000205A002059005800202023
:1005F0004D61783A2000205A0020590058002020F0
:100600004D696E3A20004F6E20004F666600536FB2
:10061000667420656E6473746F70733A2000000115
:10062000363726032B3C3D382AFF2E303E12FF0280
:10063000FF0809FF2C071A1C18FFFF08440A2C4367
:1006400024221EFFFFFFFFFFFF20643A0020693ACB
:100650000020703A0043290A0061626C656420281A
:100660006D696E2074656D702000436F6C64206549
:100670007874727564657320617265200023646507
:1006800066696E65202044454641554C545F4B6475
:10069000200023646566696E652020444546415507
:1006A0004C545F4B69200023646566696E652020A9
:1006B00044454641554C545F4B70200050494420FE
:1006C0004175746F74756E652066696E69736865CF
:1006D00064212050757420746865206C61737420E7
:1006E0004B702C204B6920616E64204B6420636F3B
:1006F0006E7374616E74732066726F6D2062656CC8
:100700006F7720696E746F20436F6E6669677572CC
:100710006174696F6E2E680A0050494420417574F7
:100720006F74756E65206661696C656421207469FB
:100730006D656F75740A00544845524D414C205206
:10074000554E4157415900546865726D616C205295
:10075000756E617761790048656174696E672066BE
:1007600061696C65640048656174696E67206661E3
:10077000696C656400504944204175746F74756EEE
:1007800065206661696C6564212054656D706572D1
:10079000617475726520746F6F20686967680A00FC
:1007A000204B643A2000204B693A2000204B703ADD
:1007B00020000A20436C6173736963205049442010
:1007C0000A002054753A2000204B753A2000206D15
:1007D00061783A2000206D696E3A200020643A204A
:1007E0000020626961733A20004F66660A00466124
:1007F0006465204865696768742000426564204C20
:100800006576656C696E6720004661696C65642079
:10081000746F20656E61626C6520426564204C6572
:1008200076656C696E670A004D65736820706F6944
:100830006E742063616E6E6F7420626520726573E2
:100840006F6C7665640A004D34323120696E636FD7
:10085000727265637420706172616D657465722077
:1008600075736167650A00546F6F20666172206658
:10087000726F6D207265666572656E636520706F5C
:10088000696E740A003A2000207A5F6D696E3A2022
:10089000202D3230207A5F6D61783A202032300A84
:1008A0000050726F6265205A204F6666736574004F
:1008B0004175746F0020452F443D00416476616EA0
:1008C0006365204B3D00416374697665204578740B
:1008D00072756465723A2000556E6B6E6F776E208C
:1008E000636F6D6D616E643A20220043616E6E6FBE
:1008F0007420656E746572207375626469723A2043
:10090000004D353031005370656369616C204D6571
:100910006E753A205265616420454550524F4D0A2C
:10092000004D353030005370656369616C204D6552
:100930006E753A205361766520454550524F4D0AF9
:10094000004732380A473239005370656369616C79
:10095000204D656E753A204175746F2042656420A4
:100960004C6576656C696E670A004D333033204301
:10097000382053323030005370656369616C204D0C
:10098000656E753A204175746F2054756E65205000
:1009900049440A003C5370656369616C5F4D656E44
:1009A000753E003C5370656369616C5F4D656E75A3
:1009B0003E002F002F002F002F2E2E0A002F2E2E4C
:1009C000002F2E2E003C5370656369616C5F4D658E
:1009D0006E753E0A003C5370656369616C204D651D
:1009E0006E753E003C5370656369616C204D656EA9
:1009F000753E003C5265616420454550524F4D3E66
:100A0000003C5265616420454550524F4D3E003CCC
:100A10005361766520454550524F4D3E003C536131
:100A2000766520454550524F4D3E003C4175746FF0
:100A300020426564204C6576656C696E673E003CBB
:100A40004175746F20426564204C6576656C696EF3
:100A5000673E003C4175746F2054756E6520486F89
:100A600074656E64205049443E003C4175746F20AB
:100A700054756E6520486F74656E64205049443E1D
:100A8000003C457869743E003C457869743E0056E8
:100A9000313136004A333320004D3530300A4D3481
:100AA00032302053310A4731205A31302046323417
:100AB000300A473120583020593020463630303007
:100AC00000544654204C6576656C20736176696EDF
:100AD0006720646174612E2E2E0A004D353030007F
:100AE0004D383531205A003E0A0041395620005415
:100AF00046542073656E64696E6720637572726513
:100B00006E74207A2D70726F6265206F66667365F1
:100B10007420646174612E2E2E203C0041395620D1
:100B2000005446542053657269616C2044656275B7
:100B3000673A204C6576656C696E67207072696EE5
:100B400074207465737420776974682068656174B3
:100B5000696E6720646F6E652E2E2E204A32320A2F
:100B6000004A323200544654204C6576656C20634E
:100B70006865636B2068656174696E672E2E2E0A46
:100B8000005446542053657269616C204465627557
:100B9000673A204C6576656C696E67207072696E85
:100BA00074207465737420646F6E652E2E2E204A37
:100BB00032320A004A323200544654204C6576657F
:100BC0006C20636865636B206E6F20686561746973
:100BD0006E672E2E2E0A004731205A3520463234B9
:100BE000300A4731205831393020593230204636CA
:100BF0003030300A4731205A3020463234300054E9
:100C00004654204C6576656C20636865636B706F35
:100C1000696E74206261636B2072696768742E2E3E
:100C20002E0A004731205A3520463234300A4731E7
:100C30002058313930205931393020463630303063
:100C40000A4731205A30204632343000544654206E
:100C50004C6576656C20636865636B706F696E7454
:100C6000206261636B2072696768742E2E2E0A0001
:100C70004731205A3520463234300A473120583126
:100C80003930205932302046363030300A47312052
:100C90005A30204632343000544654204C65766534
:100CA0006C20636865636B706F696E742066726F29
:100CB0006E742072696768742E2E2E0A00473931CF
:100CC0000A4731205A313020463234300A47393011
:100CD0000A4732380A4732390A4731205832302021
:100CE0005932302046363030300A4731205A3020D1
:100CF0004632343000544654204C6576656C696E3B
:100D000067207374617274656420616E64206D6F16
:100D100076696E7420746F2066726F6E74206C65D5
:100D200066742E2E2E0A0054465420456E74657249
:100D3000696E67206C6576656C206D656E75652ED5
:100D40002E2E0A005446542053657269616C20446B
:100D5000656275673A205344206361726420696E4E
:100D6000697469616C697A65642E2E2E204A30326E
:100D70000A004A3032005446542053657269616C4F
:100D80002044656275673A20436F6F6C696E672017
:100D9000646F776E2E2E2E204A31320A004A31328D
:100DA000004731205A3130004F4B004731205A3133
:100DB000300047393000473120452569463530300D
:100DC00000473120452D302E31462569004731201E
:100DD00045302E31462569004731205A2569462580
:100DE00069004731205A2D302E31462569004731A0
:100DF000205A302E31462569004731205925694651
:100E0000256900473120592D302E3146256900478C
:100E1000312059302E314625690047312058256947
:100E200046256900473120582D302E31462569006E
:100E300047312058302E3146256900473931004767
:100E4000323800473238205A00473238205900479C
:100E500032382058004132305620004731205A3174
:100E600030005446542053657269616C20446562B9
:100E700075673A205374617274696E672053442019
:100E80005072696E742E2E2E204A30340A004A3079
:100E900034005446542053657269616C2044656285
:100EA00075673A2046696C65206F70656E206661D3
:100EB000696C65642E2E2E204A32310A004A323186
:100EC000005446542053657269616C204465627514
:100ED000673A2046696C65206F70656E2073756394
:100EE0006365737366756C2E2E2E204A32300A00AD
:100EF0004A3230004B494C4C45442E200054465455
:100F00002053657269616C2044656275673A2053AD
:100F100044207072696E7420737461727465642EFB
:100F20002E2E204A30340A004A303400454E440008
:100F3000464E20004A3032003939393A39393900C1
:100F40004D0048004137562000413656202D2D2DAA
:100F5000004A30320041365620005A3A2000593AB1
:100F60002000583A200041355600413456200041B7
:100F70003356200041325620004131562000413086
:100F80005620005446542053657269616C20436FAB
:100F90006D6D616E643A20004D3834005446542023
:100FA00053657269616C2044656275673A205344E9
:100FB000207072696E742073746F707065642E2E69
:100FC0002E204A31360A004A313600544654205306
:100FD000657269616C2044656275673A20534420EC
:100FE0007072696E742070617573656420646F6ED1
:100FF000652E2E2E204A31380A004A3138004739F2
:10100000310A4731205A313020463234300A4739CC
:1010100030005446542053657269616C2044656207
:1010200075673A205344207072696E7420646F6E45
:10103000652E2E2E204A31340A004A31340054469F
:10104000542053657269616C2044656275673A206B
:101050005344206361726420696E736572746564C1
:101060002E2E2E204A30300A004A3030005446548A
:101070002053657269616C2044656275673A20533C
:101080004420636172642072656D6F7665642E2EF4
:101090002E204A30310A004A303100544654205341
:1010A000657269616C2044656275673A20486F74A7
:1010B000656E642074656D7065726174757265200B
:1010C00061626E6F726D616C2E2E2E204A32300A74
:1010D000004A313000696E206D6F76655F746F284D
:1010E0002920666565645F76616C756520666F7240
:1010F0002058593A002C2065793D0029202D3E20AA
:101100002865783D002C2073793D0020436F6E6E7A
:10111000656374696E672077697468207665727498
:101120006963616C206C696E65202873783D002CC2
:101130002065793D0029202D3E202865783D002C32
:101140002073793D0020436F6E6E656374696E672E
:10115000207769746820686F72697A6F6E74616C49
:10116000206C696E65202873783D002C2079693DDC
:1011700000202020446F696E6720636972636C658C
:101180002061743A202878693D003F537065636997
:101190006669656420582C5920636F6F7264696EAC
:1011A000617465206F7574206F6620626F756E6460
:1011B000732E0A003F28522965706561742076619C
:1011C0006C7565206E6F7420706C61757369626CEC
:1011D000653B206D757374206265206174206C65B9
:1011E00061737420312E0A003F28522965706561B1
:1011F00074206D7573742062652073706563696611
:10120000696564207768656E206E6F7420757369F8
:101210006E6720616E204C43442E0A003F53706578
:10122000636966696564206E6F7A7A6C652074659F
:101230006D7065726174757265206E6F7420706C6C
:1012400061757369626C652E0A003F53706563694E
:10125000666965642066696C616D656E742073698A
:101260007A65206E6F7420706C61757369626C654D
:101270002E0A003F53706563696669656420707269
:10128000696D65206C656E677468206E6F74207080
:101290006C61757369626C652E0A003F5072696DEE
:1012A00065206C656E677468206D75737420626567
:1012B00020737065636966696564207768656E2070
:1012C0006E6F74207573696E6720616E204C4344A5
:1012D0002E0A003F537065636966696564206E6F0E
:1012E0007A7A6C652073697A65206E6F7420706CF1
:1012F00061757369626C652E0A003F53706563699E
:10130000666965642052657472616374696F6E20EA
:101310004D756C7469706C696572206E6F742070A5
:101320006C61757369626C652E0A003F5265747258
:10133000616374696F6E204D756C7469706C69655A
:1013400072206D75737420626520737065636966C1
:101350006965642E0A003F53706563696669656458
:10136000206C6179657220686569676874206E6FAA
:101370007420706C61757369626C652E0A003F534E
:101380007065636966696564206265642074656D73
:101390007065726174757265206E6F7420706C6117
:1013A000757369626C652E0A0047323620636F6D73
:1013B0006D616E6420737461727465642E20576170
:1013C0006974696E6720666F722068656174657202
:1013D0002873292E0A005446542053657269616CA3
:1013E0002044656275673A2046696C616D656E746C
:1013F0002072756E6F75742E2E2E204A31350A00BC
:101400004A3135004A3132004A3137004B494C4CA1
:1014100045442E2000202D20496E76616C696420A1
:101420006578747275646572206E756D6265722080
:10143000210A002020506C616E6E657242756666EE
:10144000657242797465733A2000204672656520A2
:101450004D656D6F72793A2000436F6D70696C65F0
:10146000643A2041756720203220323031380A003A
:10147000207C20417574686F723A20286465726818
:101480006F70702C20416E796375626963206933D7
:10149000204D656761290A00323031372D31322DF8
:1014A00032352031323A303000204C61737420558F
:1014B0007064617465643A2000312E312E380A0060
:1014C0004D61726C696E0020536F6674776172654E
:1014D0002052657365740A00205761746368646FF5
:1014E000672052657365740A002042726F776E2020
:1014F0006F75742052657365740A002045787465B1
:10150000726E616C2052657365740A00506F776566
:101510007255700A0073746172740A006572726F9A
:10152000722077726974696E6720746F2066696CC7
:10153000650A0020503A00205A3A0020593A00200B
:10154000583A00656E6473746F7073206869743AFA
:101550002000446F6E6520736176696E672066694E
:101560006C652E0A004D3239004C696E65204E754F
:101570006D626572206973206E6F74204C617374A4
:10158000204C696E65204E756D6265722B312C2082
:101590004C617374204C696E653A20004B494C4C89
:1015A00045442E20005072696E7465722073746F0A
:1015B000707065642064756520746F206572726F49
:1015C00072732E2046697820746865206572726F88
:1015D0007220616E6420757365204D39393920742D
:1015E0006F20726573746172742E202854656D705B
:1015F00065726174757265206973207265736574B4
:101600002E2053657420697420616674657220729F
:10161000657374617274696E67290A004E6F2043A6
:101620006865636B73756D2077697468206C696E8B
:1016300065206E756D6265722C204C617374204C50
:10164000696E653A2000636865636B73756D206D24
:1016500069736D617463682C204C617374204C69EC
:101660006E653A20004D313130004D333100534426
:101670002072656164206572726F720A00446F6E39
:1016800065207072696E74696E672066696C650AA0
:101690000020496E76616C696420657874727564A7
:1016A000657220000000A0C00000000000000000E3
:1016B000000052430000524300004D4320746F6FFE
:1016C000206C6F6E6720657874727573696F6E2019
:1016D00070726576656E7465640A0020636F6C6471
:1016E00020657874727573696F6E207072657665A7
:1016F0006E7465640A00205A3A0020593A0020436B
:101700006F756E7420583A0020453A00205A3A000E
:1017100020593A00583A003A004361703A00454D6A
:10172000455247454E43595F50415253455200433D
:101730004153455F4C494748545F425249474854DA
:101740004E45535300544F47474C455F4C4947481B
:10175000545300534F4654574152455F504F5745DD
:1017600052004255494C445F50455243454E540047
:101770004C4556454C494E475F44415441005A5FE1
:1017800050524F4245004155544F4C4556454C0030
:101790005052494E545F4A4F420050524F475245B3
:1017A0005353004155544F5245504F52545F544586
:1017B0004D5000564F4C554D4554524943004545F8
:1017C00050524F4D0053455249414C5F584F4E5F68
:1017D000584F4646004649524D574152455F4E418B
:1017E0004D453A4D61726C696E20312E312E382094
:1017F000284769746875622920534F555243455FE5
:10180000434F44455F55524C3A68747470733A2F95
:101810002F6769746875622E636F6D2F4D61726CEE
:10182000696E4669726D776172652F4D61726C6980
:101830006E2050524F544F434F4C5F5645525349C0
:101840004F4E3A312E30204D414348494E455F546A
:101850005950453A3344205072696E746572204580
:10186000585452554445525F434F554E543A3120D7
:10187000555549443A63656465326132662D3431A9
:1018800061322D343734382D396231322D6335359C
:101890006336326633363766660A002F2F200044DF
:1018A0007269766572207265676973746572733ADE
:1018B0000A006F7409006F747077090073326761F2
:1018C00009007332676209006F6C6109006F6C6216
:1018D00009007374737409006673616374697665D3
:1018E000090073675F726573756C740900737461C6
:1018F0006C6C6775617264090044525653544154CC
:101900005553005374616C6C677561726420746820
:101910007273002D73746172740900687973746551
:1019200072697369730A2D656E640900626C616E79
:101930006B2074696D65006F66662074696D65095A
:10194000004F54207072657761726E206861730A6F
:101950006265656E20747269676765726564004FC1
:1019600054207072657761726E005B6D6D2F735DD0
:10197000090070776D0A7468726573686F6C64092A
:1019800000747374657009006D7374657073090079
:10199000737465616C746843686F70007673656E0C
:1019A0007365090050574D207363616C65004353A4
:1019B0002061637475616C0900486F6C6420637505
:1019C0007272656E740052756E2063757272656E08
:1019D00074004D41582063757272656E7400524DEB
:1019E000532063757272656E74005365742063755D
:1019F0007272656E7400456E61626C6564090061A7
:101A00007869733A70776D5F7363616C65207C737E
:101A100074617475735F726573706F6E73657C0A41
:101A20000009004E6F2063617365206C69676874FC
:101A30000A004572726F722077726974696E67204E
:101A4000746F20454550524F4D210A00290A00204D
:101A500062797465733B206372632000536574740C
:101A6000696E67732053746F72656420280024F4D4
:101A7000D43050C38E20C2A24017828B7011127ACC
:101A8000910D816CD90AA861E108C75866076151B8
:101A900043061E4B5D05C145A7041A411104093DCB
:101AA0009803713931034036DB0265339102D4303B
:101AB0005402802E1D02632CEE01752AC501B02848
:101AC000A001102781018F2564012B244B01E02206
:101AD0003401AC211F018D200D01801FFC00841EEC
:101AE000ED00971DDF00B81CD200E61BC600201BCE
:101AF000BC00641AB200B219A8000A19A0006A1842
:101B00009900D117910040178B00B516840031164B
:101B10007E00B31579003A157300C7146F0058148E
:101B20006A00EE1366008813630025135E00C71277
:101B30005B006C12570015125400C1115100701156
:101B40004F0021114B00D61049008D104700461060
:101B5000440002104200C00F4000800F3E00420FC0
:101B60003C00060F3B00CB0E3800930E37005C0E96
:101B70003500270E3400F30D3200C10D3100900DF9
:101B80003000600D2E00320D2D00050D2C00D90CFB
:101B90002B00AE0C2900850C29005C0C2700350CAD
:101BA00027000E0C2600E80B2400C40B2400A00B19
:101BB00023007D0B23005A0B2100390B2100180B49
:101BC0002000F80A1F00D90A1E00BB0A1E009D0A49
:101BD0001D00800A1D00630A1C00470A1B002C0A16
:101BE0001B00110A1A00F7091A00DD091900C409BF
:101BF0001900AB091900920917007B091800630945
:101C000017004C09160036091600200916000A09AB
:101C10001500F5081500E0081400CC081400B808F9
:101C20001400A4081400900813007D0812006B082B
:101C30001300580812004608120034081100230847
:101C400011001208110001081100F0071000E00750
:101C50001000D0071000C0071000B0070F00A10748
:101C6000100091070E0083070F0074070F0065072F
:101C70000E0057070E0049070E003B070D002E0708
:101C80000E0020070D0013070D0006070D00F906D2
:101C90000C00ED060D00E0060C00D4060C00C80692
:101CA0000C00BC060C00B0060C00A4060B00990644
:101CB0000C008D060B0082060B0077060B006C06ED
:101CC0000B0061060A0057060B004C060A0042068C
:101CD0000A0038060A002E060A0024060A001A0620
:101CE0000A001006090007060A00FD050900F405B0
:101CF0000900EB050900E2050900D9050900D00536
:101D00000900C7050900BE050900B5050800AD05B5
:101D10000800A50509009C050800940508008C052D
:101D20000800840508007C050800740508006C059F
:101D30000700650508005D050700560508004E050B
:101D40000700470507004005080038050700310572
:101D500007002A050700230507001C0506001605D5
:101D600007000F0507000805060002050700FB0431
:101D70000600F5040700EE040600E8040600E2048D
:101D80000700DB040600D5040600CF040600C904E2
:101D90000600C3040600BD040600B7040600B10433
:101DA0000500AC040600A6040600A00405009B0480
:101DB000060095040500900406008A0405008504C9
:101DC0000500800406007A0405007504050070040F
:101DD00005006B04050066040500610405005C0451
:101DE000050057040500520405004D040500480491
:101DF0000500430405003E0404003A0405003504D0
:101E00000500300404002C0405002704040023040A
:101E100005001E0404001A04040016040500110441
:101E200004000D0404000904050004040400000477
:101E30000400FC030400F8030400F4030400F003AE
:101E40000400EC030400E8030400E4030400E003DE
:101E50000400DC030400D8030400D4030400D0030E
:101E60000400CC030400C8030300C503030024F4EA
:101E700004D9201BC40C5C0E9804C4095F026507DA
:101E80007101F405F900FB04B30048048700C103A5
:101E900069005803550003034500BE023A0084025E
:101EA000310053022A002902250004022000E40127
:101EB0001C00C8011900AF0117009801140084012B
:101EC0001300710110006101100051010E00430167
:101ED0000D0036010B002B010B0020010B0015013A
:101EE00009000C01090003010800FB000800F300D1
:101EF0000800EB000700E4000600DE000600D80042
:101F00000600D2000600CC000500C7000500C20094
:101F10000500BD000400B9000400B5000400B100D4
:101F20000400AD000400A9000400A5000300A20005
:101F300003009F0004009B0003009800030095002D
:101F4000020093000300900003008D0002008B004C
:101F50000300880002008600020084000300810064
:101F600002007F0002007D0002007B000200790079
:101F70000200770001007600020074000200720087
:101F80000100710002006F0002006D0001006C0092
:101F900002006A000100690002006700010066009B
:101FA00001006500010064000200620001006100A0
:101FB0000100600001005F0002005D0001005C00A4
:101FC00001005B0001005A000100590001005800A7
:101FD00001005700010056000100550001005400A7
:101FE00001005300000053000100520001005100A5
:101FF0000100500001004F0001004E0000004E00A3
:1020000001004D0001004C0001004B0000004B009E
:1020100001004A000100490001004800000048009A
:102020000100470001004600000046000100450095
:10203000000045000100440001004300000043008F
:102040000100420000004200010041000000410088
:102050000100400001003F0000003F0001003E0081
:1020600000003E0001003D0000003D0001003C007A
:1020700000003C0000003C0001003B0000003B0071
:1020800001003A0000003A00010039000000390068
:10209000010038000000380000003800010037005F
:1020A0000000370001003600000036000000360056
:1020B000010035000000350000003500010034004B
:1020C0000000340000003400010033000000330041
:1020D0000000330001003200000032000000320036
:1020E000010031000000310000003100010030002B
:1020F000000030000000300001002F0000002F0021
:1021000000002F0000002F0001002E0000002E0014
:1021100000002E0001002D0000002D0000002D0009
:1021200000002D0001002C0000002C0000002C00FD
:1021300000002C0001002B0000002B0000002B00F1
:1021400000002B0001002A0000002A0000002A00E5
:1021500000002A00010029000000290000002900D9
:1021600000002900000029000100280000002800CC
:1021700000002800000028000000280001002700BF
:1021800000002700000027000000270000002700B3
:1021900001002600000026000000260000002600A6
:1021A0000000260001002500000025000000250099
:1021B000000025000000250000002500010024008B
:1021C000000024000000240000002400000024007F
:1021D0000100230000002300000023000000230072
:1021E0000000230000002300000023000100220063
:1021F0000000220000002200000022000000220057
:102200000000220001002100000021000000210048
:10221000000021000000210000002100000021003A
:10222000010020000000200000002000000020002D
:10223000000020000000200000002000000020001E
:1022400001001F0000001F0000001F0000001F0011
:1022500000001F0000001F0000001F0001001E0002
:1022600000001E0000001E0000001E0000004D388F
:102270003420582059205A2045006F6B0020746F7D
:102280006F206C6F6E6720657874727573696F6EFE
:102290002070726576656E7465640A0020636F6CE9
:1022A0006420657874727573696F6E2070726576DC
:1022B000656E7465640A00627573793A20706175A1
:1022C00073656420666F7220696E7075740A0062AF
:1022D0007573793A2070617573656420666F72203A
:1022E000757365720A00627573793A2070726F6354
:1022F000657373696E670A005446542053657269AA
:10230000616C2044656275673A2046696C616D6551
:102310006E742072756E6F75742E2E2E204A3135B4
:102320000A004A3135005446542053657269616C85
:102330002044656275673A2046696C616D656E740C
:102340002072756E6F7574207265636F7665726545
:10235000640A004B494C4C45442E20004B494C4CE0
:1023600020636175736564206279204B494C4C2071
:10237000627574746F6E2F70696E0A004B494C4C15
:1023800045442E20004B494C4C20636175736564B5
:1023900020627920746F6F206D75636820696E61AB
:1023A00063746976652074696D65202D206375728C
:1023B00072656E7420636F6D6D616E643A200054B7
:1023C00046542053657269616C2044656275673AB2
:1023D000204B696C6C20636F6D6D616E642E2E2EC8
:1023E000204A31310A004A3131005072696E7465F9
:1023F000722068616C7465642E206B696C6C28298E
:102400002063616C6C6564210A001000C902100130
:102410002C014001220170011801B0010E01F001F0
:1024200004015002FA00B002F0003003E600D003CD
:10243000DC009004D2007005C800A006BE000008B1
:10244000B400B009AA00D00BA000600E9600601185
:102450008C000015820020197800C01D6E00A0229B
:102460006400B0275A00902C500000314600E03440
:102470003C0010383200903A2800603C1E00A03D1D
:102480001400803E0A00203F00002CFFFFFFFF00E9
:10249000010101016265640A002C2073797374657F
:1024A0006D2073746F707065642120486561746578
:1024B000725F49443A200048656174696E6720661E
:1024C00061696C65640048656174696E6720666166
:1024D000696C65640048656174696E67206661694E
:1024E0006C65640048656174696E67206661696C3B
:1024F00065640070012C0190012701B0012201C028
:10250000011D01F00118011002130130020E0160DB
:1025100002090190020401C002FF000003FA00401A
:1025200003F5008003F000D003EB002004E6007008
:1025300004E100E004DC004005D700C005D2004003
:1025400006CD00D006C8008007C3003008BE00F0EA
:1025500008B900C009B400B00AAF00B00BAA00D09F
:102560000CA500000EA000500F9B00C0109600505C
:1025700012910000148C00C0158700B0178200B0C3
:10258000197D00D01B7800001E730040206E009063
:10259000226900F024640040275F0090295A00E07F
:1025A0002B5500102E500020304B0010324600E01A
:1025B00033410090353C001037370070383200A0AE
:1025C000392D00B03A2800A03B2300603C1E0010CB
:1025D0003D1900903D1400103E0F00703E0A00C0EF
:1025E0003E0500003F0000403FFBFF803FF6FFC07C
:1025F0003FF1FF544845524D414C2052554E4157F2
:10260000415900546865726D616C2052756E617736
:102610006179004572723A204D494E54454D502023
:10262000424544004572723A204D494E54454D5042
:10263000004D494E54454D5020747269676765726C
:102640006564004572723A204D415854454D502002
:10265000424544004572723A204D415854454D5010
:10266000004D415854454D5020747269676765723A
:10267000656400202800202F002042403A002040BE
:102680003A0043616E6E6F74206F70656E207375D3
:102690006264697220004739310A4731205A2D316E
:1026A0003020463234300A47393000656E71756526
:1026B0007565696E6720220053442063617264204F
:1026C0006F6B0A006F70656E526F6F742066616980
:1026D0006C65640A00766F6C756D652E696E697441
:1026E000206661696C65640A004572726F723A0017
:1026F000534420696E6974206661696C0A006563E1
:10270000686F3A007C3C3E5E2B3D3F2F5B5D3B2C6F
:102710002A225C0020520020204D393030204B000E
:102720004C696E65617220416476616E63653A0A38
:10273000002045302000205A322000205A2000205E
:102740005920002058200053746570706572206411
:1027500072697665722063757272656E743A0A00EA
:1027600020204D383531205A005A2D50726F626545
:10277000204F666673657420286D6D293A0A002023
:10278000440020490020204D333031205000504972
:10279000442073657474696E67733A0A00205A00A6
:1027A00020204D36363600456E6473746F7020619C
:1027B000646A7573746D656E743A0A00205A00205D
:1027C000204D3432302053004175746F20426564CF
:1027D000204C6576656C696E673A0A00205A0020C5
:1027E000590020204D323036205800486F6D65204A
:1027F0006F66667365743A0A00204500205A00200F
:10280000590020580020420020540020204D323032
:1028100035205300416476616E6365643A20533C11
:102820006D696E5F66656564726174653E20543CD7
:102830006D696E5F74726176656C5F666565647202
:102840006174653E20423C6D696E5F7365676D65BE
:102850006E745F74696D655F75733E20583C6D6181
:10286000785F78795F6A65726B3E205A3C6D61785B
:102870005F7A5F6A65726B3E20453C6D61785F658B
:102880005F6A65726B3E0A002054002052002020CF
:102890004D323034205000416363656C6572617461
:1028A000696F6E2028756E6974732F7332293A2010
:1028B000503C7072696E745F616363656C3E205258
:1028C0003C726574726163745F616363656C3E2022
:1028D000543C74726176656C5F616363656C3E0A3B
:1028E00000204500205A0020590020204D32303170
:1028F0002058004D6178696D756D20416363656C8A
:1029000065726174696F6E2028756E6974732F73B8
:1029100032293A0A00204500205A00205900202080
:102920004D3230332058004D6178696D756D2066E9
:1029300065656472617465732028756E6974732FA0
:1029400073293A0A00204500205A0020590020200F
:102950004D393220580053746570732070657220B1
:10296000756E69743A0A0020204D323030204430B0
:102970000A0020204D323030204400204469736129
:10298000626C65640A0046696C616D656E742073E3
:10299000657474696E67733A0020204732312020D5
:1029A00020203B20556E69747320696E206D6D0A7E
:1029B0000000002100240027002A002D00300033F1
:1029C0000001010000040107010A0100000A0B02D6
:1029D000090C0D0E080703040100000000000000B0
:1029E00000000000000000000000000000000000E7
:1029F00000000000000000121110000000000000A4
:102A000000000000000000000000000000000000C6
:102A1000000242696C696E656172204C6576656C76
:102A2000696E6720477269643A0A0020706F7369A3
:102A300074696F6E206F7574206F662072616E67A7
:102A4000652E0A003F50726F6265200020284452B4
:102A50005952554E2900473239204175746F204232
:102A60006564204C6576656C696E67002842296153
:102A7000636B00284629726F6E74002852296967BB
:102A8000687400284C29656674003F2856296572D1
:102A9000626F7365206C6576656C20697320696D63
:102AA000706C61757369626C652028302D34292E35
:102AB0000A00426164205A2076616C75650A004EF6
:102AC0006F2062696C696E65617220677269640A61
:102AD00000434F4D4D554E49434154494F4E0044DC
:102AE000525952554E004552524F525300494E468C
:102AF0004F004543484F0054465420536572696166
:102B00006C2044656275673A204E6F7A7A6C652056
:102B100069732068656174696E672E2E2E204A30B5
:102B2000360A004A303600544654205365726961B3
:102B30006C2044656275673A20436F6E74696E75E8
:102B4000696E67205344207072696E7420616674E8
:102B500065722068656174696E672E2E2E204A307A
:102B6000340A004A30340054465420536572696177
:102B70006C2044656275673A204E6F7A7A6C6520E6
:102B800068656174696E6720697320646F6E652E75
:102B90002E2E204A30370A004A30370020573A009C
:102BA0005446542053657269616C204465627567B0
:102BB0003A204265642069732068656174696E67B4
:102BC0002E2E2E204A30380A004A303800544654FF
:102BD0002053657269616C2044656275673A2042D2
:102BE00065642068656174696E6720697320646F2D
:102BF0006E652E2E2E204A30390A004A30390020C8
:102C0000573A00F22AED2AE62ADF2AD12A6F6666B1
:102C10000044454255473A004D3131332053002599
:102C2000753A2530327500253032753A25303275C7
:102C30000025756420253032753A25303275003A0A
:102C4000002063757272656E7420646563726561DD
:102C500073656420746F2000206472697665722049
:102C60006F76657274656D706572617475726520DA
:102C70007761726E696E67212028003A20004472E5
:102C800069766572206572726F72000000A0C000E4
:102C90000000000000000000004842000048420020
:102CA000008040000000005761726E696E673A2034
:102CB000486F6D696E672042756D70204469766952
:102CC000736F72203C20310A000202040000A04011
:102CD0000000A040000000400000574300005243A5
:102CE00000004D43FFFFFF747275650066616C73F1
:102CF0006500747275650066616C73650074727549
:102D0000650066616C736500313D2E313800303DE1
:102D10002E333235002F3331002F3331002F333132
:102D200000747275650066616C73650020286361CC
:102D30006C63756C6174656429210A0020213D2053
:102D400000454550524F4D20435243206D69736DED
:102D500061746368202D202873746F726564292064
:102D600000290A002062797465733B206372632036
:102D7000002073746F7265642073657474696E6784
:102D80007320726574726965766564202800204D31
:102D900061726C696E3D563437290A0028454550EA
:102DA000524F4D3D00454550524F4D207665727350
:102DB000696F6E206D69736D6174636820004D32B8
:102DC00034004D3233202573006175746F25692EF0
:102DD000670057726974696E6720746F2066696C4A
:102DE000653A20006F70656E206661696C65642CC1
:102DF0002046696C653A20006F70656E20666169D7
:102E00006C65642C2046696C653A200046696C65E7
:102E10002073656C65637465640A002053697A6584
:102E20003A200046696C65206F70656E65643A20D3
:102E3000006F70656E206661696C65642C20466960
:102E40006C653A20002066696C653A2000646F6901
:102E50006E67006672657368004E6F772000454E9E
:102E60004420535542524F5554494E450A002220A2
:102E7000706F73002220706172656E743A22005385
:102E80005542524F5554494E452043414C4C2074B5
:102E900061726765743A22004B494C4C45442E20C0
:102EA00000747279696E6720746F2063616C6C20A6
:102EB0007375622D67636F64652066696C65732046
:102EC0007769746820746F6F206D616E79206C650E
:102ED00076656C732E204D4158206C6576656C20AC
:102EE00069733A00000020002300260029002C000E
:102EF0002F0032000001000003010601090100005B
:102F00002200250028002B002E0031003400020191
:102F10000000050108010B01050505050705080866
:102F20000808020202020A0A080804040404010153
:102F30000101010101010303030303030303040768
:102F400007070C0C0C0C0C0C0C0C020202020606FF
:102F50000606060606060B0B0B0B0B0B0B0B0102F2
:102F6000102020080810204010204080020102019B
:102F70000804020101020408102040808040201053
:102F800008040201800402018040201008040201AC
:102F90000804020101020408102040800102040814
:102FA0001020408050726F62696E67206661696CA4
:102FB00065640A00205A3A200020593A20004265F0
:102FC0006420583A20002066697273740A005A001F
:102FD00059005800486F6D652000203D2030780072
:102FE0005800580058005800580058005800580021
:102FF00058000900206178697320647269766572EF
:103000002063757272656E743A2000747275650083
:1030100066616C73650020617869732074656D70FA
:1030200065726174757265207072657761726E2069
:103030007472696767657265643A20002070726512
:103040007761726E20666C616720636C6561726582
:10305000640A007A5F70726F62653A20007A325FAC
:103060006D696E3A20007A5F6D696E3A2000795F73
:103070006D696E3A2000785F6D696E3A2000526586
:10308000706F7274696E6720656E6473746F702000
:103090007374617475730A005446542053657269E1
:1030A000616C2044656275673A20534420707269F0
:1030B0006E74207061757365642E2E2E204A303533
:1030C0000A004A3035005446542053657269616CD9
:1030D0002044656275673A2046696C616D656E745F
:1030E0002072756E6F7574207768696C65207072D8
:1030F000696E74696E672E2E2E204A32330A004A9A
:10310000323300736C6F743A00526573656E643AC3
:1031100020004D65736820706F696E742063616E66
:103120006E6F74206265207265736F6C7665640AD9
:10313000005344207072696E74696E6720627974FE
:103140006520004E6F74205344207072696E74695C
:103150006E670A006F6B0048617264636F64656438
:103160002044656661756C742053657474696E677C
:1031700073204C6F616465640A00E8030000E80393
:103180000000C80000008813000000004843000051
:103190004843000040410000F0420000A04200000F
:1031A000A0420000C8433333B94202F5E1F41124D0
:1031B0001FBECFEFD1E2DEBFCDBF00E00CBF14E0F9
:1031C000A0E0B2E0EAE1F6E002E00BBF02C0079047
:1031D0000D92AE3BB107D9F72AE1AEEBB4E001C0E6
:1031E0001D92AA36B207E1F718E1C6EDD8E100E07A
:1031F00006C021970109802FFE010F946A02C53D88
:10320000D10780E00807A9F70E944CED0D94FC025D
:103210000C9400002F923F924F925F926F927F9298
:103220008F929F92AF92BF92CF92DF92EF92FF92D6
:103230000F931F93CF93DF93CDB7DEB7C959D10951
:103240000FB6F894DEBF0FBECDBF81E090E0909343
:10325000830D8093820D8091DD198D3409F43EC772
:10326000843511F40C942334873411F00C946534B4
:103270008091DB199091DC198C31910509F43AC6E3
:10328000D4F4843091055CF4823091059CF597FF6D
:1032900002C00C947F340E94EFB90C947F348430C8
:1032A000910509F4EAC54A9711F00C947F340E9405
:1032B0008B4B0C947F348A32910509F40BC74CF484
:1032C0008D31910509F489C64E9709F48AC60C948C
:1032D0007F348B35910509F4F4C68C35910509F4DA
:1032E000F5C68A35910511F00C947F341092C30411
:1032F0000C947F3420913B02222311F40C947F34F0
:1033000011E0029709F010E00E9458B982E50E948E
:103310002E4A882309F45CC10E94C8496B017C01D4
:103320004090D3045090D4046090D5047090D6049B
:103330002091D7043091D8044091D9045091DA04F7
:1033400024962CAF3DAF4EAF5FAF24978091F70E20
:103350009091F80EA091F90EB091FA0E28968CAFCC
:103360009DAFAEAFBFAF28972091FB0E3091FC0E02
:103370004091FD0E5091FE0E64962CAF3DAF4EAFC6
:103380005FAF649720E030E0A901C701B6010E9459
:1033900042FB882309F457C5A301920128966CAD1E
:1033A0007DAD8EAD9FAD28970E9442FB811111C06B
:1033B00024962CAD3DAD4EAD5FAD249764966CADBB
:1033C0007DAD8EAD9FAD64970E9442FB882309F4CA
:1033D0003AC520E030E0A901C701B6010E9442FBD6
:1033E000881F8827881F18130BC080E090E0A0E892
:1033F000BFE36C968CAF9DAFAEAFBFAF6C970AC00A
:1034000020E030E040E85FEB6C962CAF3DAF4EAF74
:103410005FAF6C97A301920128966CAD7DAD8EAD28
:103420009FAD28970E947AFF60966CAF7DAF8EAFFC
:103430009FAF609724962CAD3DAD4EAD5FAD249708
:1034400064966CAD7DAD8EAD9FAD64970E947AFFA2
:1034500068966CAF7DAF8EAF9FAF689760962CADCE
:103460003DAD4EAD5FAD6097CA01B9010E94A7FBAB
:103470004B015C0168962CAD3DAD4EAD5FAD6897DC
:10348000CA01B9010E94A7FB9B01AC01C501B401AF
:103490000E947BFF0F94E6012C966CAF7DAF8EAF40
:1034A0009FAF2C9720E030E040E05FE30E94A7FB55
:1034B0004B015C01A7019601C701B6010E94A7FB61
:1034C0006B017C01A5019401C501B4010E94A7FB19
:1034D0009B01AC01C701B6010E947AFF0F94E6017F
:1034E0009B01AC016C966CAD7DAD8EAD9FAD6C97C4
:1034F0000E94A7FB4B015C0128962CAD3DAD4EAD63
:103500005FAD2897C301B2010E947BFF20E030E04D
:1035100040E05FE30E94A7FB6B017C0168966CAD05
:103520007DAD8EAD9FAD689790582C962CAD3DAD7E
:103530004EAD5FAD2C970F9457009B01AC01C501B8
:10354000B4010E94A7FB9B01AC01C701B6010E9418
:103550007BFFA30192010E947AFF6B017C016496BC
:103560002CAD3DAD4EAD5FAD649724966CAD7DAD99
:103570008EAD9FAD24970E947BFF20E030E040E0BD
:103580005FE30E94A7FB2B013C012C962CAD3DADC7
:103590004EAD5FAD2C9760966CAD7DAD8EAD9FADA1
:1035A00060970F9457009B01AC01C501B4010E94C4
:1035B000A7FB9B01AC01C301B2010E947BFF2496D3
:1035C0002CAD3DAD4EAD5FAD24970E947AFF14C087
:1035D00089E40E942E4A882329F00E94C8496B0181
:1035E0007C0103C0C12CD12C76018AE40E942E4AB2
:1035F0008823F9F00E94C84964966CAF7DAF8EAF06
:103600009FAF649720E030E0A901C701B6010E9496
:1036100042FB81111EC020E030E0A90164966CAD30
:103620007DAD8EAD9FAD64970E9442FB811111C0AC
:103630000AC420E030E0A901C701B6010E9442FBA4
:10364000882309F400C464961CAE1DAE1EAE1FAEE6
:103650006497D701C601B05824968CAF9DAFAEAF2A
:10366000BFAF249764962CAD3DAD4EAD5FAD649772
:10367000505828962CAF3DAF4EAF5FAF28979C01B6
:10368000AD01BC01CD010E94A7FB4B015C01289656
:103690002CAD3DAD4EAD5FAD2897CA01B9010E947A
:1036A000A7FB9B01AC01C501B4010E947BFF0F94F5
:1036B000E601A8966CAF7DAF8EAF9FAFA8978091C3
:1036C000D3049091D404A091D504B091D6042C9643
:1036D0008CAF9DAFAEAFBFAF2C97A7019601BC01D9
:1036E000CD010E947BFF6C966CAF7DAF8EAF9FAF1C
:1036F0006C972091D7043091D8044091D90450910F
:10370000DA0468962CAF3DAF4EAF5FAF6897649612
:103710002CAD3DAD4EAD5FAD649768966CAD7DADA3
:103720008EAD9FAD68970E947BFFE0966CAF7DAF3A
:103730008EAF9FAFE0978091F70E9091F80EA09119
:10374000F90EB091FA0EA0968CAF9DAFAEAFBFAFA1
:10375000A0976C962CAD3DAD4EAD5FAD6C97BC01A6
:10376000CD010E947AFF6B017C012091FB0E30910C
:10377000FC0E4091FD0E5091FE0EA4962CAF3DAF75
:103780004EAF5FAFA497E0962CAD3DAD4EAD5FADB3
:10379000E097A4966CAD7DAD8EAD9FADA4970E94D1
:1037A0007AFF4B015C018091DB049091DC04A091D5
:1037B000DD04B091DE04E4968CAF9DAFAEAFBFAF39
:1037C000E4979C01AD016091FF0E7091000F809114
:1037D000010F9091020F0E947AFF60966CAF7DAF4F
:1037E0008EAF9FAF60972091030F3091040F4091EF
:1037F000050F5091060FAC962CAF3DAF4EAF5FAFAB
:10380000AC978091DF049091E004A091E104B09125
:10381000E204E8968CAF9DAFAEAFBFAFE897A701CB
:10382000960124966CAD7DAD8EAD9FAD24970E9420
:10383000A7FB2B013C01A501940128966CAD7DAD41
:103840008EAD9FAD28970E94A7FB9B01AC01C301E1
:10385000B2010E947BFF2B013C01A501940124963B
:103860006CAD7DAD8EAD9FAD24970E94A7FB4B0143
:103870005C01A701960128966CAD7DAD8EAD9FAD24
:1038800028970E94A7FB9B01AC01C501B4010E94CF
:103890007AFFA30192010E94EEFF6B017C0120E000
:1038A00030E0A9010E9442FB87FF0AC02BED3FE0F8
:1038B00049EC50E4C701B6010E947BFF6B017C011B
:1038C000112351F02BED3FE049EC50E4C701B60164
:1038D0000E947AFF6B017C0120E030E0A901C70162
:1038E000B6010E9442FB811128C0A0962CAD3DADCF
:1038F0004EAD5FADA0972C966CAD7DAD8EAD9FADFE
:103900002C970E9442FB811118C0A4962CAD3DADAE
:103910004EAD5FADA49768966CAD7DAD8EAD9FAD9D
:1039200068970E9442FB811108C04BEDC42E4FE006
:10393000D42E49ECE42E40E4F42EA8962CAD3DADF7
:103940004EAD5FADA897C701B6010E94A7FB9B01D2
:10395000AC010E94A7FB4B015C0160962CAD3DAD14
:103960004EAD5FAD6097CA01B9010E94A7FB9B01F4
:10397000AC01C501B4010E947BFF0F94E6014B012D
:103980005C012FE632E143E85AE30E9442FB87FDE7
:1039900056C2C501B4010F94F0000F94C4001B017E
:1039A000672B19F422242394312CB10180E090E09C
:1039B0000E9446FB4B015C019B01AC01C701B601B3
:1039C0000F9457002C966CAF7DAF8EAF9FAF2C97A6
:1039D000A501940160966CAD7DAD8EAD9FAD6097F5
:1039E0000F945700A8966CAF7DAF8EAF9FAFA8978E
:1039F000E8962CAD3DAD4EAD5FADE897AC966CADA5
:103A00007DAD8EAD9FADAC970E947AFFA50194016C
:103A10000F945700AC966CAF7DAF8EAF9FAFAC9755
:103A20002C962CAD3DAD4EAD5FAD2C97CA01B901C2
:103A30000E94A7FB20E030E040E05FE30E94A7FB8C
:103A40009B01AC0160E070E080E89FE30E947AFF98
:103A5000A0966CAF7DAF8EAF9FAFA097E4962CADD4
:103A60003DAD4EAD5FADE49729873A874B875C87C4
:103A7000E8968CAD9DADAEADBFADE8978D879E87C6
:103A8000AF87B88B6091020270910302072E000C81
:103A9000880B990B0E9448FB2091510230915202F1
:103AA00040915302509154020E94A7FB2AE037ED47
:103AB00043E25CE30E94A7FB6BAF7CAF8DAF9EAF90
:103AC0000E9467B69B01AC0128533F4F4F4F5F4F99
:103AD000A4962CAF3DAF4EAF5FAFA49721964FACED
:103AE000219722965FAC229723966FAC239724965A
:103AF0007FAC249741E050E066965FAF4EAF66978B
:103B000059E12D965FAF2D976696AEADBFAD669726
:103B1000A215B30509F458C10E94949F0E9467B68C
:103B2000DC01CB01A4962CAD3DAD4EAD5FADA497AD
:103B3000821B930BA40BB50BB7FD10C00E9467B698
:103B40009B01AC0128533F4F4F4F5F4FA4962CAFC2
:103B50003DAF4EAF5FAFA4970E944E8E2D963FAD06
:103B60002D9731502D963FAF2D97332309F44BC03D
:103B7000A0962CAD3DAD4EAD5FADA09728966CAD37
:103B80007DAD8EAD9FAD28970E94A7FB6B017C0198
:103B90002C962CAD3DAD4EAD5FAD2C97B201C3015F
:103BA0000E94A7FBA70196010E947BFF7B018C016D
:103BB000A0962CAD3DAD4EAD5FADA097B201C30157
:103BC0000E94A7FB4B015C012C962CAD3DAD4EAD88
:103BD0005FAD2C9728966CAD7DAD8EAD9FAD2897CF
:103BE0000E94A7FB9B01AC01C501B4010E947AFFB2
:103BF0002B013C01C701D80128968CAF9DAFAEAF19
:103C0000BFAF289761C066964EAD5FAD6697BA01AB
:103C100080E090E00E9446FB2C962CAD3DAD4EAD71
:103C20005FAD2C970E94A7FB4B015C010F945400E1
:103C30006B017C01C501B4010F94DC014B015C01F7
:103C4000A701960124966CAD7DAD8EAD9FAD2497F6
:103C50000E94A7FB2B013C01A501940164966CAD69
:103C60007DAD8EAD9FAD64970E94A7FB9B01AC011B
:103C7000C301B2010E947BFF2B013C01A50194010D
:103C800024966CAD7DAD8EAD9FAD24970E94A7FBB1
:103C90004B015C01A701960164966CAD7DAD8EADC4
:103CA0009FAD64970E94A7FB9B01AC01C501B401C5
:103CB0000E947AFF28966CAF7DAF8EAF9FAF28979A
:103CC00059E12D965FAF2D979201A3016C966CADD3
:103CD0007DAD8EAD9FAD6C970E947BFF69837A832B
:103CE0008B839C8328962CAD3DAD4EAD5FAD289760
:103CF000E0966CAD7DAD8EAD9FADE0970E947BFFF1
:103D00006D837E838F839887A8962CAD3DAD4EAD95
:103D10005FADA89769857A858B859C850E947BFF1E
:103D200069877A878B879C87AC962CAD3DAD4EAD6D
:103D30005FADAC976D857E858F8598890E947BFFEE
:103D40006D877E878F87988B80913502882321F03D
:103D5000CE0101960E94A3AEE090810D89819A81E7
:103D6000AB81BC8188A399A3AAA3BBA38D819E81AB
:103D7000AF81B8858CA39DA3AEA3BFA389859A8587
:103D8000AB85BC8588A799A7AAA7BBA7CE018096BB
:103D90000E94AA608E01055C1F4F9E01235F3F4F6A
:103DA000AE01485D5F4FBE016C5D7F4FCE018096D6
:103DB0000E94A16F66968EAD9FAD6697019666963E
:103DC0009FAF8EAF6697A0CEE090810D8091F70EE9
:103DD0009091F80EA091F90EB091FA0E88A399A3D4
:103DE000AAA3BBA38091FB0E9091FC0EA091FD0EA7
:103DF000B091FE0E8CA39DA3AEA3BFA38091FF0E36
:103E00009091000FA091010FB091020F88A799A780
:103E1000AAA7BBA7CE0180960E94AA608E01055C6E
:103E20001F4F23E03FE0AE01485D5F4FBE016C5D78
:103E30007F4FCE0180960E94A16F0E94814B0E940D
:103E4000B2600C947F34E9EEF6E284918F010F5F4B
:103E50001F4F882321F00E947348F801F6CFEBE34F
:103E6000F2E084918F010F5F1F4F882311F40C94AF
:103E70007F340E947348F801F4CF80E50E942E4AF7
:103E8000882329F00E948B606B017C0103C0C12C48
:103E9000D12C760183E50E942E4A882361F00E948E
:103EA000C84920E030E04AE754E40E94A7FB0F94A1
:103EB000C4006B017C010E940B840E94B26080915F
:103EC0008B0D90918C0DA0918D0DB0918E0DC80E23
:103ED000D91EEA1EFB1E0E9467B6DC01CB018C19BD
:103EE0009D09AE09BF09B7FD02C00C947F340E9442
:103EF0004E8EF1CF0E940B8480E00E9408BB0E948E
:103F0000D66011E01093F91388E50E94FF49E82E6E
:103F100089E50E94FF49082F8AE50E94FF49F82E93
:103F2000E11004C0011104C0182705C0011102C02E
:103F300010E001C0182F0E943A4A111104C0E1108C
:103F400002C00023C1F180E090E0A0EAB0E48093D9
:103F5000FF0E9093000FA093010FB093020F9C01EE
:103F6000AD016091DB047091DC048091DD049091DF
:103F7000DE040E9442FB87FF0BC019821A821B825B
:103F80001C82BE016F5F7F4F8FEF9EE00E94275C17
:103F9000111105C0E11003C0011107C00CC080E081
:103FA00090E00E9445C51123B9F381E090E00E94A2
:103FB00045C5111102C0FF2021F082E090E00E946F
:103FC00045C50E9444608091F8138093F9130E94C4
:103FD000BD600E9400780C947F340E9491BB0C94C9
:103FE0007F34C090D304D090D404E090D504F090F6
:103FF000D60488E50E942E4A811109C020E030E0F5
:1040000040E151E4C701B6010E947AFF02C00E945C
:10401000C84968A379A38AA39BA3C090D704D09072
:10402000D804E090D904F090DA0489E50E942E4A81
:10403000811109C020E030E040EB51E4C701B60136
:104040000E947AFF02C00E94C8496B017C0169830B
:104050007A838B839C8388A099A0AAA0BBA02FE61B
:1040600032E143E85AEBC501B4010F94A10187FF87
:1040700002C00C947F3422E430E049E453E4C501EB
:10408000B4010E9442FB181614F40C947F342FE6FE
:1040900032E143E85AEBC701B6010F94A10187FF53
:1040A00002C00C947F3422E430E04CE353E4C701B7
:1040B000B6010E9442FB181614F40C947F340C9441
:1040C000863481E08093C3040C947F340E943EE8E0
:1040D0000C947F340E94D6E80C947F348091DB19D5
:1040E0009091DC198737910509F4A3C70CF0E3C060
:1040F0008135910509F463C70CF080C08B319105BF
:1041000009F46BC2DCF58631910509F435C224F55A
:104110008231910509F460C79CF4419711F00C9429
:104120007F345F988A9847989FB7F89480910801E8
:104130008E7F809308019FBF479812980C947F341C
:104140008431910509F4D3C1459711F00C947F3463
:104150000E9479A10C947F348831910509F416C22C
:104160000CF410C28931910509F41BC24A9711F071
:104170000C947F340E9410E80C947F348A329105AD
:1041800009F42CC4E4F48E31910509F42AC274F4C4
:104190004C9711F00C947F3440E060E08091D91985
:1041A0009091DA190E9427D10C947F348F319105B8
:1041B00009F471C3809709F422C30C947F348B34C3
:1041C000910509F468C46CF4C19711F00C947F3424
:1041D000F090BE0481E0F826F092BE04E0E2F3E045
:1041E0003DC48C34910509F45AC48D34910511F005
:1041F0000C947F340E94FDA20C947F348B36910581
:1042000009F4D9C66CF58C35910509F404C784F41A
:104210008335910509F4DBC60CF4D5C684359105C8
:1042200009F4DAC68535910509F4DAC60C947F34B1
:104230008836910509F46CC634F48436910509F486
:1042400048C40C947F348936910509F4A4C68A3693
:10425000910511F00C947F340E9422C50C947F3498
:104260008037910509F48BC69CF48D36910509F4CD
:104270009EC60CF480C68E36910509F478C68F363A
:10428000910511F00C947F340E94D1C00C947F34BE
:104290008237910509F4C3C60CF479C683379105BA
:1042A00009F4C3C68637910511F00C947F340E943F
:1042B00078770C947F348F32B1E09B0711F40C9423
:1042C0001E2C0CF071C08C3C910509F401C7D4F58B
:1042D0008B39910509F467C6A4F48937910509F46F
:1042E000B3C60CF4AAC68A37910511F40C94203495
:1042F0008C38910511F00C947F340E948EC00C9480
:104300007F34883C910509F4A5C64CF48E3B910599
:1043100011F00C947F340E9458C10C947F34893C76
:10432000910509F49BC68B3C910511F00C947F34E8
:104330006CEDE62E67E0F62E04E612E074E0D72E70
:10434000D00EB6C68D3D910511F40C94852A8CF4DF
:104350008E3C910509F495C70CF426C7833D910561
:1043600009F4E3C78C3D910511F40C94762A0C9462
:104370007F348C32F1E09F0711F40C94FE2A3CF458
:10438000823E910511F40C94CF2A0C947F348D3227
:1043900031E0930711F40C94282B8E32914011F4E4
:1043A0000C94C72B0C947F34853F51E0950711F492
:1043B0000C9446320CF043C08A39B1E09B0709F4F3
:1043C000E2C504F58039F1E09F0711F40C94033045
:1043D0004CF48336914011F00C947F340E94877422
:1043E0000C947F34813941E0940711F40C94063029
:1043F0008239914011F00C947F3480E00E942E5C51
:104400000C947F34853AA1E09A0711F40C94D530CE
:104410003CF4843A914011F40C940A300C947F34AB
:104420008C3AF1E09F0711F40C946931843F91407C
:1044300011F00C947F340E94E8790C947F34843816
:1044400033E0930711F40C94B032BCF4873F51E091
:10445000950711F40C944C3214F40C9449328A39B7
:10446000B2E09B0709F435C78335934011F00C94F3
:104470007F34EEEFF6E20C9458328039F3E09F0778
:1044800011F40C941D342CF58A3833E0930711F4A1
:104490000C94B4338F38934011F00C947F346EEB4E
:1044A00072E080E493E10E9465DD64EC72E08EEBE3
:1044B00092E10E9465DD6AEC72E08CE392E10E9479
:1044C00065DD60ED72E088E391E10E9465DD0C94AA
:1044D0007F34803A53E0950709F4D0C1873E93407A
:1044E00011F00C947F340E9474740C947F34E2E7D2
:1044F000F2E084918F010F5F1F4F882321F00E940B
:104500007348F801F6CF1092AE161092AD1640E047
:1045100050E0BA0189E594E10E940DA78BE1E9E53D
:10452000F4E1DE01159601900D928A95E1F78091F4
:104530005714909158149C838B8389EE92E09A8350
:10454000898340E050E0BE016F5F7F4F8FE894E0C9
:104550000E9423A5CE0101960E9487C6E3E6F2E001
:1045600084918F010F5F1F4F882311F40C947F34C7
:104570000E947348F801F4CF109228141092291465
:104580000C947F340E942AE80C947F348091291483
:10459000882319F081E0809328140E942BDA0C9470
:1045A0007F34109228148091181490911914019757
:1045B00011F00C947F3482E090E090931914809372
:1045C00018140E9467B6609322147093231480938A
:1045D0002414909325140C947F340E94D3E70C94F8
:1045E0007F3480912914882311F40C947F3483EF55
:1045F00095E10E94478283EF95E10E94F6A7109211
:10460000271410922614E090D919F090DA198091AD
:104610002914882311F40C947F340E941CD11D822C
:1046200018861C821B8289EE92E09A83898385E535
:1046300094E19093751480937414F70180818F3204
:1046400009F068C06FE270E0C7010F94B9028C01F5
:104650000F5F1F4F9E012F5F3F4F4901011511054D
:1046600009F45EC06FE270E0C8010F94B9026C01FA
:10467000009709F456C00817190708F052C05C01EA
:10468000A01AB10AA501B801CE0180960F94E202EA
:10469000E0E2F0E0EC0FFD1FEA0DFB1D10828E0141
:1046A000005E1F4FD8018D918D01882319F00E9463
:1046B0007348F8CF8AE00E94734860917414709137
:1046C00075146115710511F06C5F7F4F21E0AE012B
:1046D000405E5F4FCE0105960E94B5AD811112C0BC
:1046E000BE01605E7F4F89EA92E00E94846D8EE297
:1046F0000E9473488AE00E947348C4010E9487C6E2
:104700000C947F34909275148092741486010F5F1C
:104710001F4FA4CF86E794E190937514809374148F
:10472000870160917414709175146115710511F011
:104730006C5F7F4F18A21BA222E0A801CE018096D9
:104740000E94B5AD811102C0F12C14C0CE0180963B
:104750000E9493A48823C1F361E0CE0180960E9459
:10476000FFA7009789F325EEFC0120831BA20E947E
:10477000F67FF82ECE0180960E949B60FF2009F103
:10478000E3E8F2E084917F012FEFE21AF20A882336
:1047900021F00E947348F701F5CFD8018D918D016A
:1047A000882319F00E947348F8CF8AE00E9473486A
:1047B0001092A4161092A5161092A6161092A71683
:1047C00018C0E1E9F2E084917F01BFEFEB1AFB0A28
:1047D000882321F00E947348F701F5CFF8018191F9
:1047E0008F01882319F00E947348F8CF8EE20E944F
:1047F0007348CE0101960E9487C60C947F34809145
:10480000281481110E940B8480912914882311F4AB
:104810000C947F3480E50E942E4A882319F00E9470
:10482000B94903C080E50E94FF49182F482F61E075
:104830008091D9199091DA190E9427D183E50E94BD
:104840002E4A882381F00E949849AB01BC01409315
:10485000A4165093A5166093A6167093A71683EF1F
:1048600095E10E940DA780912914882319F081E019
:104870008093281411110C947F348FCE8091D91914
:104880009091DA1921E02093271440E060E00E9423
:1048900027D10C947F340E945DA42CE3C22ED12C2E
:1048A000E12CF12CA70196010E941DFF762E672EA8
:1048B000CA01B901A70196010E941DFF6B017C018D
:1048C000CA01B90128E130E040E050E00E941DFF3C
:1048D0004B015C01C9016DE671E00F9443028E014A
:1048E0000F5F1F4F6115710599F06F927F92DF92F4
:1048F000CF929F928F929F938F937F936F9385EE2A
:1049000092E09F938F931F930F930E9413FB26C0F7
:10491000009789F06F927F92DF92CF929F928F9251
:104920009F938F9385ED92E09F938F931F930F93A7
:104930000E9413FB13C081149104A104B104B1F0CF
:104940006F927F92DF92CF929F928F9289EC92E04A
:104950009F938F931F930F930E9413FB0FB6F894AE
:10496000DEBF0FBECDBFEEEFF6E223C0C114D1040F
:10497000E104F10469F06F927F92DF92CF9281ECB3
:1049800092E09F938F931F930F930E9413FBE6CFA8
:104990006F927F928DEB92E09F938F931F930F9373
:1049A0000E9413FB0F900F900F900F900F900F909D
:1049B000DACF84917F01BFEFEB1AFB0A882321F045
:1049C0000E947348F701F5CFB80189EF92E00E9489
:1049D000846D8AE00E9473480C947F3483E50E94C2
:1049E0002E4A882311F40C947F340E94A849E82EA3
:1049F00080E50E942E4A882341F00E9498498B014D
:104A000077FF02C00C947F3402C00DE010E0902FBD
:104A1000EEE1F6E08BE28E0F2491921729F03196A9
:104A20008E13FACF0C94DD34E9EEF6E284918F0117
:104A30000F5F1F4F882321F00E947348F801F6CFC3
:104A4000E6E0F3E084918F010F5F1F4F882311F49C
:104A50000C947F340E947348F801F4CF84918F0145
:104A60000F5F1F4F882321F00E947348F801F6CF93
:104A7000F11003C0EAE1F3E002C0E5E1F3E0849164
:104A80008F010F5F1F4F882311F40C947F340E9415
:104A90007348F801F4CF0E942BDA0C947F34809194
:104AA000181490911914019711F00C947F3482E03E
:104AB00090E090931914809318140E9467B6609345
:104AC00022147093231480932414909325140C942F
:104AD0007F348091641A9091651A0E94FFE165E528
:104AE00072E08CE295E00E94846D8AE69AE10E9471
:104AF000FFE165E572E08EE195E00E94846DC09073
:104B0000641AD090651AC114D10421F48AE6C82E23
:104B10008AE1D82EC6010E94FFE165E572E086E0D9
:104B200095E00E94846D8E01015C1F4FC8010196C3
:104B30000E94FFE165E572E084EF94E00E94846DDD
:104B40008AE00E9473488091000281110C94F33432
:104B500089E40E94FF4981110C94F33484E40E949B
:104B6000FF49882341F0B8016F5F7F4FC6010E9463
:104B700021490C947F3486E40E94FF49882309F47C
:104B80006CC10F5F1F4F7801EC18FD08A12CB12CF0
:104B9000212C312C412C512C66246A94762CAE1495
:104BA000BF04CCF546018A0C9B1CD4018C91853E38
:104BB00071F5F40100E010E08191853E31F0015083
:104BC0001109093011051CF107C00F5F1F4F0115B6
:104BD000BDE71B0789F71BC0B80187EB94E00E9473
:104BE0006B6DC4010E94FFE165E572E087EA94E025
:104BF0000E94846D8AE00E9473486016710614F466
:104C000014013801A00EB11EEFEF4E1A5E0AFFEF3D
:104C1000AF1ABF0AC4CF22E042165104ECF0E5E718
:104C2000F4E084918F010F5F1F4F882321F00E94D1
:104C30007348F801F6CFB3018DE594E00E946B6DE7
:104C4000C1010E94FFE165E572E082E594E00E9407
:104C5000846D8AE00E9473480BE113E0D8018D91C6
:104C60008D01882319F00E947348F8CFC090641A10
:104C7000D090651AC114D10421F41AE6C12E1AE1AC
:104C8000D12E8E01045C1F4F5801AC18BD08B50130
:104C900082E294E00E946B6D84E69AE10E94FFE15B
:104CA00065E572E085E194E00E94846D8091641A6C
:104CB0009091651A0E94FFE165E572E083E194E05E
:104CC0000E94846D8AE69AE10E94FFE165E572E048
:104CD00086E094E00E94846DC8010E94FFE165E5D2
:104CE00072E081E094E00E94846D0C151D0528F5AA
:104CF000E5EFF3E084918F010F5F1F4F882321F0D0
:104D00000E947348F801F6CF64E170E080E090E023
:104D10000E9410A103E213E0F80181918F01882322
:104D200019F00E947348F8CF8AE00E9473486FEF31
:104D300071E280E89BE10E942149812C912CE12CB9
:104D4000F12C8A149B04BCF5F601E80DF91D808155
:104D5000853E69F580E090E02191253EC1F08C010F
:104D6000015011090930110514F1800E911E3FEF19
:104D7000E31AF30AB70182EF93E00E946B6DB8016A
:104D800089EE93E00E946B6DE5EEF3E006C00196BC
:104D900081152DE7920701F70AC084918F010F5FFB
:104DA0001F4F882321F00E947348F801F6CF4FEF80
:104DB000841A940AC6CFB70186ED93E00E946B6D0A
:104DC00051E0E516F10419F0E4EAF3E007C0809140
:104DD000641A9091651A892BB9F710C084918F01DC
:104DE0000F5F1F4F882321F00E947348F801F6CF10
:104DF000E114F10419F4EE24EA94FE2CEBE9F3E05B
:104E000084918F010F5F1F4F882321F00E94734808
:104E1000F801F6CF81E0E816F10449F480E30E943E
:104E200073488AE00E94734860E070E00DC0E5E9D5
:104E3000F3E084918F010F5F1F4F882321F00E94C0
:104E40007348F801F6CFB7018CE294E00E946B6DD5
:104E50008AE00E9473480C947F3483E40E94FF49E7
:104E6000882311F40C947F340E9498497B019E01A1
:104E70002C193D09215E31096F5F7F4FC9010F94E5
:104E800043028B01E4EDF4E084915F019FEFA91AE6
:104E9000B90A811108C0C8010896C80ED91EAA24F3
:104EA000A394B12C04C00E947348F501EDCFEA141D
:104EB000FB0448F1D601AC92C6010E94FFE165E512
:104EC00072E08EEB94E00E94846DBFEFAB1ABB0AD8
:104ED000C00ED11EECCFC090B807D090B907E090BB
:104EE000BA07F090BB0720E030E0A901C701B60186
:104EF0000E9442FB882311F40C94A63342E0C701C0
:104F0000B6010E9411618AE00E9473480C947F34BC
:104F100088E690E00E94FB5C81110C947F348091C4
:104F2000F90783FF02C00C947F3483E50E942E4A68
:104F30008823C9F00E94C8490F94BF007093EC0405
:104F40006093EB0480E00E942E9B0E94C84920E001
:104F500030E04AEA52E40E9442FB181614F00E9424
:104F6000FDA20E94C8490E94AC6D0C947F340E943F
:104F700048C10C947F34109201020C947F3489E371
:104F800095E00E94FC8D0E94FB760C947F340E9479
:104F9000A7C00C947F340E94B6E71092830D109244
:104FA000820D0C941C370E9488E70C947F340E9479
:104FB00020C30C947F340E9413C50C947F340E944C
:104FC0007CC00C947F341092C2040C947F3481E036
:104FD0008093C2040C947F340E9421C00C947F34CF
:104FE00083E50E94FF49882311F40C947F340E94CA
:104FF000C84920E030E04AE754E40E94A7FB0F9440
:10500000C40060938F0D7093900D8093910D9093D9
:10501000920D0C947F340E94DD780C947F340E94B2
:105020000B840E9400780C947F340E94B9770C9412
:105030007F340E947DE30C947F3481E08093F913E8
:105040008093F8130C947F341092F9131092F81394
:105050000C947F340E9430770C947F34EAE0EE2E7B
:10506000E8E0FE2E04E612E0F4E0DF2ED00EF801B8
:1050700081918F010E94FF49882351F00E94C84905
:105080000F94C400D7016D937D938D939C931397D8
:10509000B4E0EB0EF11CD012EACF0E94DC6D0C9450
:1050A0007F34B4E0EB0EF11CD01611F40C947F3475
:1050B000F80181918F010E94FF49882391F30E949A
:1050C000C849D7016D937D938D939C931397E9CF36
:1050D00083E50E94FF498823D9F00E94C849AB01AB
:1050E000BC014093D4075093D5076093D6077093C3
:1050F000D7074093D0075093D1076093D20770939E
:10510000D3078CE995E00E94CC8D8AE00E94734819
:1051100080E50E94FF49882399F00E94C849AB01AD
:10512000BC014093D4075093D5076093D607709382
:10513000D7078FE795E00E94CC8D8AE00E947348E4
:1051400082E50E94FF49882399F00E94C849AB017B
:10515000BC014093D8075093D9076093DA07709346
:10516000DB0780E695E00E94CC8D8AE00E947348C0
:1051700084E50E94FF49882311F40C947F340E9437
:10518000C849AB01BC014093D0075093D10760934D
:10519000D2077093D30782E495E00E94CC8D8AE019
:1051A0000E9473480C947F3483E50E94FF49882352
:1051B00051F00E94C8496093F4077093F5078093FB
:1051C000F6079093F70784E50E94FF49882351F082
:1051D0000E94C8496093F0077093F1078093F2072B
:1051E0009093F30782E40E94FF49882351F00E94C4
:1051F0008B606093EC077093ED078093EE079093BC
:10520000EF0788E50E94FF49882351F00E94C849B2
:105210006093C0077093C1078093C2079093C30740
:1052200089E50E94FF49882351F00E94C849609394
:10523000C4077093C5078093C6079093C7078AE594
:105240000E94FF49882351F00E94C8496093C80713
:105250007093C9078093CA079093CB0785E40E9497
:10526000FF49882311F40C947F340E94C84960934D
:10527000CC077093CD078093CE079093CF070C9403
:105280007F3444E6C42E42E0D42E51E7E52E55E0AB
:10529000F52E00E010E0F60181916F010E94FF49B8
:1052A000882359F00E94C849D7016D937D938D934F
:1052B0009C931397C8010E94BA5C0F5F1F4FB4E024
:1052C000EB0EF11C0330110531F70E9400780C94AD
:1052D0007F34E7ECF5E084918F010F5F1F4F882347
:1052E00021F00E947348F801F6CF8AE50E94FF4939
:1052F000882351F00E94C84960936D0E70936E0E22
:1053000080936F0E9093700E40916D0E50916E0EC3
:1053100060916F0E7091700E84EC95E00E94CC8DC0
:105320008AE00E9473480C947F34EEEFF6E2849199
:105330008F010F5F1F4F882321F00E947348F801EF
:10534000F6CF83E50E94FF49882321F00E94B949E6
:1053500080933502EEE0F6E084918F010F5F1F4FDE
:10536000882321F00E947348F801F6CF809135021E
:10537000811103C0EAE0F6E002C0E6E0F6E08491C5
:105380008F010F5F1F4F882321F00E947348F8019F
:10539000F6CFEEEFF5E084918F010F5F1F4F88236A
:1053A00021F00E947348F801F6CF2091DC0E309175
:1053B000DD0E4091DE0E5091DF0E6091610E709116
:1053C000620E8091630E9091640E0E947BFFAB0190
:1053D000BC018CEF95E00E94CC8D2091E00E3091C5
:1053E000E10E4091E20E5091E30E6091650E7091D6
:1053F000660E8091670E9091680E0E947BFFAB0154
:10540000BC0189EF95E00E94CC8D2091E40E309193
:10541000E50E4091E60E5091E70E6091690E709195
:105420006A0E80916B0E90916C0E0E947BFFAB0117
:10543000BC0186EF95E00E94CC8DEEEEF5E0849104
:105440008F010F5F1F4F882321F00E947348F801DE
:10545000F6CF2091DC0E3091DD0E4091DE0E5091A2
:10546000DF0E609140027091410280914202909162
:1054700043020E947BFFAB01BC018CEE95E00E94D1
:10548000CC8D2091E00E3091E10E4091E20E5091D2
:10549000E30E609144027091450280914602909122
:1054A00047020E947BFFAB01BC0189EE95E00E94A0
:1054B000CC8D2091E40E3091E50E4091E60E509196
:1054C000E70E609148027091490280914A029091E2
:1054D0004B020E947BFFAB01BC0186EE95E00E946F
:1054E000CC8D8AE00E9473480C947F3483E50E943F
:1054F0002E4A882311F40C947F340E9498497093AB
:105500000302609302020C947F348DED90E00E94C0
:10551000FB5C81110C947F3483E50E942E4A882322
:1055200011F40C947F340091FB0D10E00E94984917
:10553000000F111FF801E25FFD4F718360838091BE
:10554000FB0D90E08C01000F111F000F111FF801DF
:10555000EE5EFD4F7F01880F991FFC01E25FFD4F5A
:1055600060817181072E000C880B990B0E9448FB0B
:105570002AE037ED43E25CE30E94A7FBF801E05527
:10558000F84F20813181428153810E94A7FBD701CE
:105590006D937D938D939C9313970C947F3480E54A
:1055A0000E94FF49882311F40C947F340E9498498B
:1055B0006B017C0183E50E942E4A882321F00E9422
:1055C00098498B0102C00FEF1FEFC80101960397A6
:1055D00010F00C947F34D7FE02C00C947F349C2DC5
:1055E000EEE1F6E08BE28E0F2491921711F40C9409
:1055F0007F3431968E13F8CF0C94F43683E50E94F5
:105600002E4A882319F00E94984902C064E071E094
:1056100079A368A380E50E942E4A882339F00E946E
:1056200098496938B3E17B0730F402C068EE73E053
:105630007A83698304C088E893E19A838983BE01F1
:10564000605E7F4FCE0101960E944FD70C947F344D
:1056500085E40E942E4A811110C080E50E94FF4916
:10566000882391F00E94C8496093EA0D7093EB0D76
:105670008093EC0D9093ED0D07C00E94A8498823FC
:1056800061F3E9EEF6E272C089E40E94FF498823E3
:1056900081F00E94C8492CEA35EC47E25EE30E94A3
:1056A000A7FB6093E60D7093E70D8093E80D909350
:1056B000E90D84E40E94FF49882381F00E94C849D3
:1056C0002CEA35EC47E25EE30F9457006093EE0D51
:1056D0007093EF0D8093F00D9093F10DEEEFF6E2E5
:1056E00084918F010F5F1F4F882321F00E94734820
:1056F000F801F6CF4091EA0D5091EB0D6091EC0D61
:105700007091ED0D81E596E00E94CC8D2CEA35EC90
:1057100047E25EE36091E60D7091E70D8091E80D40
:105720009091E90D0F945700AB01BC018DE496E018
:105730000E94AF8D2CEA35EC47E25EE36091EE0DFE
:105740007091EF0D8091F00D9091F10D0E94A7FBEB
:10575000AB01BC0189E496E00E94AF8D8AE00E9413
:1057600073480C947F340E947348F80184918F0130
:105770000F5F1F4F8111F7CF0FE413E0F801819104
:105780008F01882309F4BFCB0E947348F7CF83E5CC
:105790000E94FF49182F882371F00E94C8490F9476
:1057A000BF00709311026093100221E0672B09F093
:1057B00020E02093F80780E50E94FF49882361F0EC
:1057C0002091100230911102232B11F00E94B9494F
:1057D0008093F8070C947F3411110C947F34EEEF12
:1057E000F6E284918F010F5F1F4F882321F00E9402
:1057F0007348F801F6CF8091F807811103C06FE07C
:1058000073E002C062E974E08AE696E00E94846D6B
:10581000609110027091110289E596E00E946B6D13
:10582000E5E5F6E084918F010F5F1F4F882311F4A7
:105830000C947F340E947348F801F4CF85E40E94F1
:105840002E4A882321F00E9498497B0102C0E12C56
:10585000F12C83E40E942E4A882341F00E9498494B
:10586000CF57DF4F6883C158D04006C025E0CF57DF
:10587000DF4F2883C158D04085E50E942E4A8823F7
:1058800019F00E94B94903C085E50E94FF49C3573A
:10589000DF4F8883CD58D040F7FC07C0812C912C76
:1058A000B6E1AB2EB3E4BB2E06C0812C912CACE844
:1058B000AA2EA2E4BA2E83E50E942E4A882321F064
:1058C0000E94C8494B015C01E114F10411F41092EB
:1058D000FB0D1092830D1092820D0E9467B62B0172
:1058E0003C01DC01CB018C53964FAF4FBF4F8093EF
:1058F000F20D9093F30DA093F40DB093F50DE1101C
:1059000003C000E613E00EC003E713E0D8018D9159
:105910008D01882319F00E947348F8CF8AE00E9415
:105920007348EDC7F80181918F01882319F00E9417
:105930007348F8CFC501B4010F94BF00072E000CC7
:10594000880B990B0E9448FB61966FAF619729966F
:105950007FAF29972D968FAF2D9765969FAF65974F
:10596000A3019201205E314B4F4F5F4FCA56DF4F6C
:10597000288339834A835B83C659D0408AE00E94DA
:1059800073480E94799B8FE78093F90D81E08093A3
:105990000102CB57DF4F488259826A827B82C55809
:1059A000D040C257DF4F488259826A827B82CE58EC
:1059B000D040CC57DF4F1882C458D040CE56DF4F6E
:1059C000188219821A821B82C259D040AD961FAE2E
:1059D000AD9730E46D963FAF6D974CE1A1964FAF18
:1059E000A19756E4E1965FAFE197E5961FAEE59784
:1059F000A5961FAEA597A9961FAEA997E9961FAECB
:105A0000E997C358DF4F188219821A821B82CD573B
:105A1000D040ED961CAE1DAE1EAE1FAEED97C12C54
:105A2000D12C7601FFE78F2E912CA12CB12C8FE782
:105A300090E0A0E0B0E028968CAF9DAFAEAFBFAFD6
:105A40002897C757DF4F188219821A821B82C958BC
:105A5000D04091E0CD57DF4F9883C358D0406A962D
:105A60001FAE1EAE6A9710E0212C312C00E0CF57FC
:105A7000DF4FA881C158D0400A2E000CBB0BCF5776
:105A8000DF4FB983A883C158D04080910102882399
:105A900009F441C10E9467B624966CAF7DAF8EAF0A
:105AA0009FAF24978091F70D882309F410C10E94BD
:105AB0003E9C1091ED042090EE043090EF04009194
:105AC000F004212F322D432D502FE5966FADE59731
:105AD000A5967FADA597A9968FADA997E9969FAD9D
